{
    "_format": "hh-sol-artifact-1",
    "contractName": "AcademicRegistry",
    "sourceName": "contracts/AcademicRegistry.sol",
    "abi": [
        {
            "inputs": [],
            "stateMutability": "nonpayable",
            "type": "constructor"
        },
        {
            "anonymous": false,
            "inputs": [
                {
                    "indexed": true,
                    "internalType": "address",
                    "name": "institutionAddress",
                    "type": "address"
                },
                {
                    "indexed": false,
                    "internalType": "string",
                    "name": "courseCode",
                    "type": "string"
                }
            ],
            "name": "CourseAdded",
            "type": "event"
        },
        {
            "anonymous": false,
            "inputs": [
                {
                    "indexed": false,
                    "internalType": "string",
                    "name": "courseCode",
                    "type": "string"
                },
                {
                    "indexed": false,
                    "internalType": "string",
                    "name": "disciplineCode",
                    "type": "string"
                }
            ],
            "name": "DisciplineAdded",
            "type": "event"
        },
        {
            "anonymous": false,
            "inputs": [
                {
                    "indexed": true,
                    "internalType": "address",
                    "name": "studentAddress",
                    "type": "address"
                },
                {
                    "indexed": false,
                    "internalType": "string",
                    "name": "disciplineCode",
                    "type": "string"
                },
                {
                    "indexed": false,
                    "internalType": "uint8",
                    "name": "period",
                    "type": "uint8"
                }
            ],
            "name": "GradeAdded",
            "type": "event"
        },
        {
            "anonymous": false,
            "inputs": [
                {
                    "indexed": true,
                    "internalType": "address",
                    "name": "institutionAddress",
                    "type": "address"
                },
                {
                    "indexed": false,
                    "internalType": "string",
                    "name": "name",
                    "type": "string"
                }
            ],
            "name": "InstitutionAdded",
            "type": "event"
        },
        {
            "anonymous": false,
            "inputs": [
                {
                    "indexed": true,
                    "internalType": "address",
                    "name": "institutionAddress",
                    "type": "address"
                },
                {
                    "indexed": false,
                    "internalType": "address",
                    "name": "professorAddress",
                    "type": "address"
                },
                {
                    "indexed": false,
                    "internalType": "string",
                    "name": "name",
                    "type": "string"
                }
            ],
            "name": "ProfessorAdded",
            "type": "event"
        },
        {
            "anonymous": false,
            "inputs": [
                {
                    "indexed": true,
                    "internalType": "address",
                    "name": "studentAddress",
                    "type": "address"
                },
                {
                    "indexed": false,
                    "internalType": "string",
                    "name": "name",
                    "type": "string"
                }
            ],
            "name": "StudentAdded",
            "type": "event"
        },
        {
            "inputs": [
                {
                    "internalType": "address",
                    "name": "institutionAddress",
                    "type": "address"
                },
                {
                    "internalType": "string",
                    "name": "code",
                    "type": "string"
                },
                {
                    "internalType": "string",
                    "name": "name",
                    "type": "string"
                },
                {
                    "internalType": "string",
                    "name": "courseType",
                    "type": "string"
                },
                {
                    "internalType": "int256",
                    "name": "numberOfSemesters",
                    "type": "int256"
                }
            ],
            "name": "addCourse",
            "outputs": [],
            "stateMutability": "nonpayable",
            "type": "function"
        },
        {
            "inputs": [
                {
                    "internalType": "address",
                    "name": "institutionAddress",
                    "type": "address"
                },
                {
                    "internalType": "string",
                    "name": "courseCode",
                    "type": "string"
                },
                {
                    "internalType": "string",
                    "name": "disciplineCode",
                    "type": "string"
                },
                {
                    "internalType": "string",
                    "name": "name",
                    "type": "string"
                },
                {
                    "internalType": "string",
                    "name": "ementa",
                    "type": "string"
                },
                {
                    "internalType": "int256",
                    "name": "workload",
                    "type": "int256"
                },
                {
                    "internalType": "int256",
                    "name": "creditCount",
                    "type": "int256"
                }
            ],
            "name": "addDisciplineToCourse",
            "outputs": [],
            "stateMutability": "nonpayable",
            "type": "function"
        },
        {
            "inputs": [
                {
                    "internalType": "address",
                    "name": "institutionAddress",
                    "type": "address"
                },
                {
                    "internalType": "address",
                    "name": "studentAddress",
                    "type": "address"
                },
                {
                    "internalType": "string",
                    "name": "disciplineCode",
                    "type": "string"
                },
                {
                    "internalType": "uint8",
                    "name": "period",
                    "type": "uint8"
                },
                {
                    "internalType": "uint8",
                    "name": "media",
                    "type": "uint8"
                },
                {
                    "internalType": "uint8",
                    "name": "attendance",
                    "type": "uint8"
                },
                {
                    "internalType": "bool",
                    "name": "status",
                    "type": "bool"
                }
            ],
            "name": "addGrade",
            "outputs": [],
            "stateMutability": "nonpayable",
            "type": "function"
        },
        {
            "inputs": [
                {
                    "internalType": "address",
                    "name": "institutionAddress",
                    "type": "address"
                },
                {
                    "internalType": "string",
                    "name": "name",
                    "type": "string"
                },
                {
                    "internalType": "string",
                    "name": "document",
                    "type": "string"
                }
            ],
            "name": "addInstitution",
            "outputs": [],
            "stateMutability": "nonpayable",
            "type": "function"
        },
        {
            "inputs": [
                {
                    "internalType": "address",
                    "name": "institutionAddress",
                    "type": "address"
                },
                {
                    "internalType": "address",
                    "name": "professorAddress",
                    "type": "address"
                },
                {
                    "internalType": "string",
                    "name": "name",
                    "type": "string"
                },
                {
                    "internalType": "string",
                    "name": "document",
                    "type": "string"
                }
            ],
            "name": "addProfessorToInstitution",
            "outputs": [],
            "stateMutability": "nonpayable",
            "type": "function"
        },
        {
            "inputs": [
                {
                    "internalType": "address",
                    "name": "institutionAddress",
                    "type": "address"
                },
                {
                    "internalType": "address",
                    "name": "studentAddress",
                    "type": "address"
                },
                {
                    "internalType": "string",
                    "name": "name",
                    "type": "string"
                },
                {
                    "internalType": "string",
                    "name": "document",
                    "type": "string"
                }
            ],
            "name": "addStudent",
            "outputs": [],
            "stateMutability": "nonpayable",
            "type": "function"
        },
        {
            "inputs": [
                {
                    "internalType": "address",
                    "name": "institutionAddress",
                    "type": "address"
                },
                {
                    "internalType": "address",
                    "name": "studentAddress",
                    "type": "address"
                },
                {
                    "internalType": "string",
                    "name": "disciplineCode",
                    "type": "string"
                },
                {
                    "internalType": "string",
                    "name": "courseCode",
                    "type": "string"
                }
            ],
            "name": "enrollStudentInDiscipline",
            "outputs": [],
            "stateMutability": "nonpayable",
            "type": "function"
        },
        {
            "inputs": [
                {
                    "internalType": "address",
                    "name": "institutionAddress",
                    "type": "address"
                }
            ],
            "name": "getCoursesFromInstitution",
            "outputs": [
                {
                    "components": [
                        {
                            "internalType": "string",
                            "name": "code",
                            "type": "string"
                        },
                        {
                            "internalType": "string",
                            "name": "name",
                            "type": "string"
                        },
                        {
                            "internalType": "string",
                            "name": "courseType",
                            "type": "string"
                        },
                        {
                            "internalType": "int256",
                            "name": "numberOfSemesters",
                            "type": "int256"
                        }
                    ],
                    "internalType": "struct AcademicRegistry.Course[]",
                    "name": "",
                    "type": "tuple[]"
                }
            ],
            "stateMutability": "view",
            "type": "function"
        },
        {
            "inputs": [
                {
                    "internalType": "string",
                    "name": "courseCode",
                    "type": "string"
                }
            ],
            "name": "getDisciplinesFromCourse",
            "outputs": [
                {
                    "components": [
                        {
                            "internalType": "string",
                            "name": "code",
                            "type": "string"
                        },
                        {
                            "internalType": "string",
                            "name": "name",
                            "type": "string"
                        },
                        {
                            "internalType": "string",
                            "name": "ementa",
                            "type": "string"
                        },
                        {
                            "internalType": "int256",
                            "name": "workload",
                            "type": "int256"
                        },
                        {
                            "internalType": "int256",
                            "name": "creditCount",
                            "type": "int256"
                        }
                    ],
                    "internalType": "struct AcademicRegistry.Discipline[]",
                    "name": "",
                    "type": "tuple[]"
                }
            ],
            "stateMutability": "view",
            "type": "function"
        },
        {
            "inputs": [
                {
                    "internalType": "address",
                    "name": "studentAddress",
                    "type": "address"
                }
            ],
            "name": "getGrades",
            "outputs": [
                {
                    "components": [
                        {
                            "internalType": "string",
                            "name": "disciplineCode",
                            "type": "string"
                        },
                        {
                            "internalType": "uint8",
                            "name": "period",
                            "type": "uint8"
                        },
                        {
                            "internalType": "uint8",
                            "name": "media",
                            "type": "uint8"
                        },
                        {
                            "internalType": "uint8",
                            "name": "attendance",
                            "type": "uint8"
                        },
                        {
                            "internalType": "bool",
                            "name": "status",
                            "type": "bool"
                        }
                    ],
                    "internalType": "struct AcademicRegistry.Grade[]",
                    "name": "",
                    "type": "tuple[]"
                }
            ],
            "stateMutability": "view",
            "type": "function"
        },
        {
            "inputs": [
                {
                    "internalType": "address",
                    "name": "institutionAddress",
                    "type": "address"
                }
            ],
            "name": "getInstitution",
            "outputs": [
                {
                    "components": [
                        {
                            "internalType": "address",
                            "name": "idInstitutionAccount",
                            "type": "address"
                        },
                        {
                            "internalType": "string",
                            "name": "name",
                            "type": "string"
                        },
                        {
                            "internalType": "string",
                            "name": "document",
                            "type": "string"
                        }
                    ],
                    "internalType": "struct AcademicRegistry.Institution",
                    "name": "",
                    "type": "tuple"
                }
            ],
            "stateMutability": "view",
            "type": "function"
        },
        {
            "inputs": [],
            "name": "getInstitutionList",
            "outputs": [
                {
                    "internalType": "address[]",
                    "name": "",
                    "type": "address[]"
                }
            ],
            "stateMutability": "view",
            "type": "function"
        },
        {
            "inputs": [
                {
                    "internalType": "address",
                    "name": "institutionAddress",
                    "type": "address"
                }
            ],
            "name": "getProfessorsFromInstitution",
            "outputs": [
                {
                    "components": [
                        {
                            "internalType": "address",
                            "name": "idProfessorAccount",
                            "type": "address"
                        },
                        {
                            "internalType": "string",
                            "name": "name",
                            "type": "string"
                        },
                        {
                            "internalType": "string",
                            "name": "document",
                            "type": "string"
                        }
                    ],
                    "internalType": "struct AcademicRegistry.Professor[]",
                    "name": "",
                    "type": "tuple[]"
                }
            ],
            "stateMutability": "view",
            "type": "function"
        },
        {
            "inputs": [
                {
                    "internalType": "address",
                    "name": "studentAddress",
                    "type": "address"
                }
            ],
            "name": "getStudent",
            "outputs": [
                {
                    "components": [
                        {
                            "internalType": "address",
                            "name": "idStudentAccount",
                            "type": "address"
                        },
                        {
                            "internalType": "string",
                            "name": "name",
                            "type": "string"
                        },
                        {
                            "internalType": "string",
                            "name": "document",
                            "type": "string"
                        }
                    ],
                    "internalType": "struct AcademicRegistry.Student",
                    "name": "",
                    "type": "tuple"
                }
            ],
            "stateMutability": "view",
            "type": "function"
        }
    ],
    "bytecode": "0x6080604052348015600f57600080fd5b50336000806101000a81548173ffffffffffffffffffffffffffffffffffffffff021916908373ffffffffffffffffffffffffffffffffffffffff1602179055506148b68061005f6000396000f3fe608060405234801561001057600080fd5b50600436106100ea5760003560e01c8063711992361161008c5780638346137e116100665780638346137e14610243578063adaaeb2a14610273578063cf1f0ef8146102a3578063f021278c146102d3576100ea565b806371199236146101db57806375b4868a1461020b5780637eb9255014610227576100ea565b80633ac3c834116100c85780633ac3c834146101435780634bbbc400146101735780636ab482c91461018f5780636b7b44d7146101ab576100ea565b806308ff1a14146100ef5780631cdcf5e71461010b57806332ad59b714610127575b600080fd5b61010960048036038101906101049190612f5b565b6102f1565b005b61012560048036038101906101209190613038565b6106cb565b005b610141600480360381019061013c9190612f5b565b610b1f565b005b61015d60048036038101906101589190613114565b610fb1565b60405161016a9190613313565b60405180910390f35b61018d60048036038101906101889190613335565b61120f565b005b6101a960048036038101906101a49190612f5b565b611596565b005b6101c560048036038101906101c09190613114565b6118e8565b6040516101d29190613430565b60405180910390f35b6101f560048036038101906101f09190613114565b611abb565b60405161020291906134a9565b60405180910390f35b6102256004803603810190610220919061353c565b611c8e565b005b610241600480360381019061023c91906135fe565b612299565b005b61025d60048036038101906102589190613114565b612492565b60405161026a9190613878565b60405180910390f35b61028d6004803603810190610288919061389a565b612634565b60405161029a9190613a2d565b60405180910390f35b6102bd60048036038101906102b89190613114565b61289f565b6040516102ca9190613b68565b60405180910390f35b6102db612ab7565b6040516102e89190613c39565b60405180910390f35b85600073ffffffffffffffffffffffffffffffffffffffff16600160008373ffffffffffffffffffffffffffffffffffffffff1673ffffffffffffffffffffffffffffffffffffffff16815260200190815260200160002060000160009054906101000a900473ffffffffffffffffffffffffffffffffffffffff1673ffffffffffffffffffffffffffffffffffffffff16036103c3576040517f08c379a00000000000000000000000000000000000000000000000000000000081526004016103ba90613cb8565b60405180910390fd5b868073ffffffffffffffffffffffffffffffffffffffff163373ffffffffffffffffffffffffffffffffffffffff1614610432576040517f08c379a000000000000000000000000000000000000000000000000000000000815260040161042990613d4a565b60405180910390fd5b600073ffffffffffffffffffffffffffffffffffffffff16600460008973ffffffffffffffffffffffffffffffffffffffff1673ffffffffffffffffffffffffffffffffffffffff16815260200190815260200160002060000160009054906101000a900473ffffffffffffffffffffffffffffffffffffffff1673ffffffffffffffffffffffffffffffffffffffff1614610503576040517f08c379a00000000000000000000000000000000000000000000000000000000081526004016104fa90613db6565b60405180910390fd5b60405180606001604052808873ffffffffffffffffffffffffffffffffffffffff16815260200187878080601f016020809104026020016040519081016040528093929190818152602001838380828437600081840152601f19601f82011690508083019250505050505050815260200185858080601f016020809104026020016040519081016040528093929190818152602001838380828437600081840152601f19601f82011690508083019250505050505050815250600460008973ffffffffffffffffffffffffffffffffffffffff1673ffffffffffffffffffffffffffffffffffffffff16815260200190815260200160002060008201518160000160006101000a81548173ffffffffffffffffffffffffffffffffffffffff021916908373ffffffffffffffffffffffffffffffffffffffff1602179055506020820151816001019081610657919061401b565b50604082015181600201908161066d919061401b565b509050508673ffffffffffffffffffffffffffffffffffffffff167f546ed786c8923815c5efd04ecbc2b720211ff8b4998a8971c38897c3e75d199687876040516106b9929190614129565b60405180910390a25050505050505050565b87600073ffffffffffffffffffffffffffffffffffffffff16600160008373ffffffffffffffffffffffffffffffffffffffff1673ffffffffffffffffffffffffffffffffffffffff16815260200190815260200160002060000160009054906101000a900473ffffffffffffffffffffffffffffffffffffffff1673ffffffffffffffffffffffffffffffffffffffff160361079d576040517f08c379a000000000000000000000000000000000000000000000000000000000815260040161079490613cb8565b60405180910390fd5b888073ffffffffffffffffffffffffffffffffffffffff163373ffffffffffffffffffffffffffffffffffffffff161461080c576040517f08c379a000000000000000000000000000000000000000000000000000000000815260040161080390613d4a565b60405180910390fd5b6000600260008c73ffffffffffffffffffffffffffffffffffffffff1673ffffffffffffffffffffffffffffffffffffffff168152602001908152602001600020905060005b818054905081101561091e578a8a60405160200161087192919061417d565b6040516020818303038152906040528051906020012082828154811061089a57610899614196565b5b90600052602060002090600402016000016040516020016108bb9190614248565b6040516020818303038152906040528051906020012003610911576040517f08c379a0000000000000000000000000000000000000000000000000000000008152600401610908906142ab565b60405180910390fd5b8080600101915050610852565b50600260008c73ffffffffffffffffffffffffffffffffffffffff1673ffffffffffffffffffffffffffffffffffffffff16815260200190815260200160002060405180608001604052808c8c8080601f016020809104026020016040519081016040528093929190818152602001838380828437600081840152601f19601f8201169050808301925050505050505081526020018a8a8080601f016020809104026020016040519081016040528093929190818152602001838380828437600081840152601f19601f82011690508083019250505050505050815260200188888080601f016020809104026020016040519081016040528093929190818152602001838380828437600081840152601f19601f8201169050808301925050505050505081526020018681525090806001815401808255809150506001900390600052602060002090600402016000909190919091506000820151816000019081610a89919061401b565b506020820151816001019081610a9f919061401b565b506040820151816002019081610ab5919061401b565b506060820151816003015550508a73ffffffffffffffffffffffffffffffffffffffff167f20ae279614e346edd5d454f51868d886bc8f9cba22e7c392b36866f0e52138198b8b604051610b0a929190614129565b60405180910390a25050505050505050505050565b85600073ffffffffffffffffffffffffffffffffffffffff16600160008373ffffffffffffffffffffffffffffffffffffffff1673ffffffffffffffffffffffffffffffffffffffff16815260200190815260200160002060000160009054906101000a900473ffffffffffffffffffffffffffffffffffffffff1673ffffffffffffffffffffffffffffffffffffffff1603610bf1576040517f08c379a0000000000000000000000000000000000000000000000000000000008152600401610be890613cb8565b60405180910390fd5b868073ffffffffffffffffffffffffffffffffffffffff163373ffffffffffffffffffffffffffffffffffffffff1614610c60576040517f08c379a0000000000000000000000000000000000000000000000000000000008152600401610c5790613d4a565b60405180910390fd5b600860008973ffffffffffffffffffffffffffffffffffffffff1673ffffffffffffffffffffffffffffffffffffffff16815260200190815260200160002060008873ffffffffffffffffffffffffffffffffffffffff1673ffffffffffffffffffffffffffffffffffffffff16815260200190815260200160002060009054906101000a900460ff1615610d2a576040517f08c379a0000000000000000000000000000000000000000000000000000000008152600401610d219061433d565b60405180910390fd5b600360008973ffffffffffffffffffffffffffffffffffffffff1673ffffffffffffffffffffffffffffffffffffffff16815260200190815260200160002060405180606001604052808973ffffffffffffffffffffffffffffffffffffffff16815260200188888080601f016020809104026020016040519081016040528093929190818152602001838380828437600081840152601f19601f82011690508083019250505050505050815260200186868080601f016020809104026020016040519081016040528093929190818152602001838380828437600081840152601f19601f82011690508083019250505050505050815250908060018154018082558091505060019003906000526020600020906003020160009091909190915060008201518160000160006101000a81548173ffffffffffffffffffffffffffffffffffffffff021916908373ffffffffffffffffffffffffffffffffffffffff1602179055506020820151816001019081610ea7919061401b565b506040820151816002019081610ebd919061401b565b5050506001600860008a73ffffffffffffffffffffffffffffffffffffffff1673ffffffffffffffffffffffffffffffffffffffff16815260200190815260200160002060008973ffffffffffffffffffffffffffffffffffffffff1673ffffffffffffffffffffffffffffffffffffffff16815260200190815260200160002060006101000a81548160ff0219169083151502179055508773ffffffffffffffffffffffffffffffffffffffff167f59b768739f71abc6084b7f18d1c8fe9a7e13d995932e3d4c7c64b60fcd7cf504888888604051610f9f9392919061436c565b60405180910390a25050505050505050565b6060600260008373ffffffffffffffffffffffffffffffffffffffff1673ffffffffffffffffffffffffffffffffffffffff168152602001908152602001600020805480602002602001604051908101604052809291908181526020016000905b82821015611204578382906000526020600020906004020160405180608001604052908160008201805461104590613e34565b80601f016020809104026020016040519081016040528092919081815260200182805461107190613e34565b80156110be5780601f10611093576101008083540402835291602001916110be565b820191906000526020600020905b8154815290600101906020018083116110a157829003601f168201915b505050505081526020016001820180546110d790613e34565b80601f016020809104026020016040519081016040528092919081815260200182805461110390613e34565b80156111505780601f1061112557610100808354040283529160200191611150565b820191906000526020600020905b81548152906001019060200180831161113357829003601f168201915b5050505050815260200160028201805461116990613e34565b80601f016020809104026020016040519081016040528092919081815260200182805461119590613e34565b80156111e25780601f106111b7576101008083540402835291602001916111e2565b820191906000526020600020905b8154815290600101906020018083116111c557829003601f168201915b5050505050815260200160038201548152505081526020019060010190611012565b505050509050919050565b60008054906101000a900473ffffffffffffffffffffffffffffffffffffffff1673ffffffffffffffffffffffffffffffffffffffff163373ffffffffffffffffffffffffffffffffffffffff161461129d576040517f08c379a000000000000000000000000000000000000000000000000000000000815260040161129490614410565b60405180910390fd5b600073ffffffffffffffffffffffffffffffffffffffff16600160008773ffffffffffffffffffffffffffffffffffffffff1673ffffffffffffffffffffffffffffffffffffffff16815260200190815260200160002060000160009054906101000a900473ffffffffffffffffffffffffffffffffffffffff1673ffffffffffffffffffffffffffffffffffffffff161461136e576040517f08c379a00000000000000000000000000000000000000000000000000000000081526004016113659061447c565b60405180910390fd5b60405180606001604052808673ffffffffffffffffffffffffffffffffffffffff16815260200185858080601f016020809104026020016040519081016040528093929190818152602001838380828437600081840152601f19601f82011690508083019250505050505050815260200183838080601f016020809104026020016040519081016040528093929190818152602001838380828437600081840152601f19601f82011690508083019250505050505050815250600160008773ffffffffffffffffffffffffffffffffffffffff1673ffffffffffffffffffffffffffffffffffffffff16815260200190815260200160002060008201518160000160006101000a81548173ffffffffffffffffffffffffffffffffffffffff021916908373ffffffffffffffffffffffffffffffffffffffff16021790555060208201518160010190816114c2919061401b565b5060408201518160020190816114d8919061401b565b50905050600a859080600181540180825580915050600190039060005260206000200160009091909190916101000a81548173ffffffffffffffffffffffffffffffffffffffff021916908373ffffffffffffffffffffffffffffffffffffffff1602179055508473ffffffffffffffffffffffffffffffffffffffff167f53c8ba766789150b95d79fcf2e244a0f2638aaa6814f679f574a4bfe44ba8df48585604051611587929190614129565b60405180910390a25050505050565b85600073ffffffffffffffffffffffffffffffffffffffff16600160008373ffffffffffffffffffffffffffffffffffffffff1673ffffffffffffffffffffffffffffffffffffffff16815260200190815260200160002060000160009054906101000a900473ffffffffffffffffffffffffffffffffffffffff1673ffffffffffffffffffffffffffffffffffffffff1603611668576040517f08c379a000000000000000000000000000000000000000000000000000000000815260040161165f90613cb8565b60405180910390fd5b868073ffffffffffffffffffffffffffffffffffffffff163373ffffffffffffffffffffffffffffffffffffffff16146116d7576040517f08c379a00000000000000000000000000000000000000000000000000000000081526004016116ce90613d4a565b60405180910390fd5b600084846040516020016116ec92919061417d565b6040516020818303038152906040528051906020012090506000878760405160200161171992919061417d565b604051602081830303815290604052805190602001209050600073ffffffffffffffffffffffffffffffffffffffff16600460008b73ffffffffffffffffffffffffffffffffffffffff1673ffffffffffffffffffffffffffffffffffffffff16815260200190815260200160002060000160009054906101000a900473ffffffffffffffffffffffffffffffffffffffff1673ffffffffffffffffffffffffffffffffffffffff1603611802576040517f08c379a00000000000000000000000000000000000000000000000000000000081526004016117f9906144e8565b60405180910390fd5b60066000838152602001908152602001600020600082815260200190815260200160002060009054906101000a900460ff16611873576040517f08c379a000000000000000000000000000000000000000000000000000000000815260040161186a9061457a565b60405180910390fd5b6001600960008b73ffffffffffffffffffffffffffffffffffffffff1673ffffffffffffffffffffffffffffffffffffffff168152602001908152602001600020600083815260200190815260200160002060006101000a81548160ff02191690831515021790555050505050505050505050565b6118f0612e20565b600460008373ffffffffffffffffffffffffffffffffffffffff1673ffffffffffffffffffffffffffffffffffffffff1681526020019081526020016000206040518060600160405290816000820160009054906101000a900473ffffffffffffffffffffffffffffffffffffffff1673ffffffffffffffffffffffffffffffffffffffff1673ffffffffffffffffffffffffffffffffffffffff1681526020016001820180546119a090613e34565b80601f01602080910402602001604051908101604052809291908181526020018280546119cc90613e34565b8015611a195780601f106119ee57610100808354040283529160200191611a19565b820191906000526020600020905b8154815290600101906020018083116119fc57829003601f168201915b50505050508152602001600282018054611a3290613e34565b80601f0160208091040260200160405190810160405280929190818152602001828054611a5e90613e34565b8015611aab5780601f10611a8057610100808354040283529160200191611aab565b820191906000526020600020905b815481529060010190602001808311611a8e57829003601f168201915b5050505050815250509050919050565b611ac3612e57565b600160008373ffffffffffffffffffffffffffffffffffffffff1673ffffffffffffffffffffffffffffffffffffffff1681526020019081526020016000206040518060600160405290816000820160009054906101000a900473ffffffffffffffffffffffffffffffffffffffff1673ffffffffffffffffffffffffffffffffffffffff1673ffffffffffffffffffffffffffffffffffffffff168152602001600182018054611b7390613e34565b80601f0160208091040260200160405190810160405280929190818152602001828054611b9f90613e34565b8015611bec5780601f10611bc157610100808354040283529160200191611bec565b820191906000526020600020905b815481529060010190602001808311611bcf57829003601f168201915b50505050508152602001600282018054611c0590613e34565b80601f0160208091040260200160405190810160405280929190818152602001828054611c3190613e34565b8015611c7e5780601f10611c5357610100808354040283529160200191611c7e565b820191906000526020600020905b815481529060010190602001808311611c6157829003601f168201915b5050505050815250509050919050565b87600073ffffffffffffffffffffffffffffffffffffffff16600160008373ffffffffffffffffffffffffffffffffffffffff1673ffffffffffffffffffffffffffffffffffffffff16815260200190815260200160002060000160009054906101000a900473ffffffffffffffffffffffffffffffffffffffff1673ffffffffffffffffffffffffffffffffffffffff1603611d60576040517f08c379a0000000000000000000000000000000000000000000000000000000008152600401611d5790613cb8565b60405180910390fd5b888073ffffffffffffffffffffffffffffffffffffffff163373ffffffffffffffffffffffffffffffffffffffff1614611dcf576040517f08c379a0000000000000000000000000000000000000000000000000000000008152600401611dc690613d4a565b60405180910390fd5b60008888604051602001611de492919061417d565b604051602081830303815290604052805190602001209050600073ffffffffffffffffffffffffffffffffffffffff16600460008c73ffffffffffffffffffffffffffffffffffffffff1673ffffffffffffffffffffffffffffffffffffffff16815260200190815260200160002060000160009054906101000a900473ffffffffffffffffffffffffffffffffffffffff1673ffffffffffffffffffffffffffffffffffffffff1603611ecd576040517f08c379a0000000000000000000000000000000000000000000000000000000008152600401611ec4906144e8565b60405180910390fd5b600960008b73ffffffffffffffffffffffffffffffffffffffff1673ffffffffffffffffffffffffffffffffffffffff168152602001908152602001600020600082815260200190815260200160002060009054906101000a900460ff16611f6a576040517f08c379a0000000000000000000000000000000000000000000000000000000008152600401611f619061460c565b60405180910390fd5b6000600560008c73ffffffffffffffffffffffffffffffffffffffff1673ffffffffffffffffffffffffffffffffffffffff168152602001908152602001600020905060005b81805490508110156120bf578a8a604051602001611fcf92919061417d565b60405160208183030381529060405280519060200120828281548110611ff857611ff7614196565b5b90600052602060002090600202016000016040516020016120199190614248565b6040516020818303038152906040528051906020012014801561207257508860ff1682828154811061204e5761204d614196565b5b906000526020600020906002020160010160009054906101000a900460ff1660ff16145b156120b2576040517f08c379a00000000000000000000000000000000000000000000000000000000081526004016120a99061469e565b60405180910390fd5b8080600101915050611fb0565b50600560008c73ffffffffffffffffffffffffffffffffffffffff1673ffffffffffffffffffffffffffffffffffffffff1681526020019081526020016000206040518060a001604052808c8c8080601f016020809104026020016040519081016040528093929190818152602001838380828437600081840152601f19601f8201169050808301925050505050505081526020018a60ff1681526020018960ff1681526020018860ff168152602001871515815250908060018154018082558091505060019003906000526020600020906002020160009091909190915060008201518160000190816121b3919061401b565b5060208201518160010160006101000a81548160ff021916908360ff16021790555060408201518160010160016101000a81548160ff021916908360ff16021790555060608201518160010160026101000a81548160ff021916908360ff16021790555060808201518160010160036101000a81548160ff02191690831515021790555050508a73ffffffffffffffffffffffffffffffffffffffff167ff93ce252ff7b6097c6aff07442edc7fe082f5b56d942c09d25311593c54f980d8b8b8b604051612283939291906146cd565b60405180910390a2505050505050505050505050565b8a8a8a8080601f016020809104026020016040519081016040528093929190818152602001838380828437600081840152601f19601f82011690508083019250505050505050600080600260008573ffffffffffffffffffffffffffffffffffffffff1673ffffffffffffffffffffffffffffffffffffffff168152602001908152602001600020905060005b81805490508110156123be57836040516020016123439190614730565b6040516020818303038152906040528051906020012082828154811061236c5761236b614196565b5b906000526020600020906004020160000160405160200161238d9190614248565b60405160208183030381529060405280519060200120036123b157600192506123be565b8080600101915050612326565b50816123ff576040517f08c379a00000000000000000000000000000000000000000000000000000000081526004016123f690614793565b60405180910390fd5b8e8073ffffffffffffffffffffffffffffffffffffffff163373ffffffffffffffffffffffffffffffffffffffff161461246e576040517f08c379a000000000000000000000000000000000000000000000000000000000815260040161246590613d4a565b60405180910390fd5b6124808f8f8f8f8f8f8f8f8f8f612b45565b50505050505050505050505050505050565b6060600560008373ffffffffffffffffffffffffffffffffffffffff1673ffffffffffffffffffffffffffffffffffffffff168152602001908152602001600020805480602002602001604051908101604052809291908181526020016000905b8282101561262957838290600052602060002090600202016040518060a001604052908160008201805461252690613e34565b80601f016020809104026020016040519081016040528092919081815260200182805461255290613e34565b801561259f5780601f106125745761010080835404028352916020019161259f565b820191906000526020600020905b81548152906001019060200180831161258257829003601f168201915b505050505081526020016001820160009054906101000a900460ff1660ff1660ff1681526020016001820160019054906101000a900460ff1660ff1660ff1681526020016001820160029054906101000a900460ff1660ff1660ff1681526020016001820160039054906101000a900460ff161515151581525050815260200190600101906124f3565b505050509050919050565b60606000838360405160200161264b92919061417d565b60405160208183030381529060405280519060200120905060076000828152602001908152602001600020805480602002602001604051908101604052809291908181526020016000905b8282101561289257838290600052602060002090600502016040518060a00160405290816000820180546126c990613e34565b80601f01602080910402602001604051908101604052809291908181526020018280546126f590613e34565b80156127425780601f1061271757610100808354040283529160200191612742565b820191906000526020600020905b81548152906001019060200180831161272557829003601f168201915b5050505050815260200160018201805461275b90613e34565b80601f016020809104026020016040519081016040528092919081815260200182805461278790613e34565b80156127d45780601f106127a9576101008083540402835291602001916127d4565b820191906000526020600020905b8154815290600101906020018083116127b757829003601f168201915b505050505081526020016002820180546127ed90613e34565b80601f016020809104026020016040519081016040528092919081815260200182805461281990613e34565b80156128665780601f1061283b57610100808354040283529160200191612866565b820191906000526020600020905b81548152906001019060200180831161284957829003601f168201915b505050505081526020016003820154815260200160048201548152505081526020019060010190612696565b5050505091505092915050565b6060600360008373ffffffffffffffffffffffffffffffffffffffff1673ffffffffffffffffffffffffffffffffffffffff168152602001908152602001600020805480602002602001604051908101604052809291908181526020016000905b82821015612aac57838290600052602060002090600302016040518060600160405290816000820160009054906101000a900473ffffffffffffffffffffffffffffffffffffffff1673ffffffffffffffffffffffffffffffffffffffff1673ffffffffffffffffffffffffffffffffffffffff16815260200160018201805461298990613e34565b80601f01602080910402602001604051908101604052809291908181526020018280546129b590613e34565b8015612a025780601f106129d757610100808354040283529160200191612a02565b820191906000526020600020905b8154815290600101906020018083116129e557829003601f168201915b50505050508152602001600282018054612a1b90613e34565b80601f0160208091040260200160405190810160405280929190818152602001828054612a4790613e34565b8015612a945780601f10612a6957610100808354040283529160200191612a94565b820191906000526020600020905b815481529060010190602001808311612a7757829003601f168201915b50505050508152505081526020019060010190612900565b505050509050919050565b6060600a805480602002602001604051908101604052809291908181526020018280548015612b3b57602002820191906000526020600020905b8160009054906101000a900473ffffffffffffffffffffffffffffffffffffffff1673ffffffffffffffffffffffffffffffffffffffff1681526020019060010190808311612af1575b5050505050905090565b60008a8a604051602001612b5a92919061417d565b60405160208183030381529060405280519060200120905060008989604051602001612b8792919061417d565b60405160208183030381529060405280519060200120905060066000838152602001908152602001600020600082815260200190815260200160002060009054906101000a900460ff1615612c11576040517f08c379a0000000000000000000000000000000000000000000000000000000008152600401612c0890614825565b60405180910390fd5b600760008381526020019081526020016000206040518060a001604052808c8c8080601f016020809104026020016040519081016040528093929190818152602001838380828437600081840152601f19601f8201169050808301925050505050505081526020018a8a8080601f016020809104026020016040519081016040528093929190818152602001838380828437600081840152601f19601f82011690508083019250505050505050815260200188888080601f016020809104026020016040519081016040528093929190818152602001838380828437600081840152601f19601f8201169050808301925050505050505081526020018681526020018581525090806001815401808255809150506001900390600052602060002090600502016000909190919091506000820151816000019081612d55919061401b565b506020820151816001019081612d6b919061401b565b506040820151816002019081612d81919061401b565b5060608201518160030155608082015181600401555050600160066000848152602001908152602001600020600083815260200190815260200160002060006101000a81548160ff0219169083151502179055507fb7ccbff5208bd2f9864f1c48288352bf120116572bac36dd2eb8dfc3786371438c8c8c8c604051612e0a9493929190614845565b60405180910390a1505050505050505050505050565b6040518060600160405280600073ffffffffffffffffffffffffffffffffffffffff16815260200160608152602001606081525090565b6040518060600160405280600073ffffffffffffffffffffffffffffffffffffffff16815260200160608152602001606081525090565b600080fd5b600080fd5b600073ffffffffffffffffffffffffffffffffffffffff82169050919050565b6000612ec382612e98565b9050919050565b612ed381612eb8565b8114612ede57600080fd5b50565b600081359050612ef081612eca565b92915050565b600080fd5b600080fd5b600080fd5b60008083601f840112612f1b57612f1a612ef6565b5b8235905067ffffffffffffffff811115612f3857612f37612efb565b5b602083019150836001820283011115612f5457612f53612f00565b5b9250929050565b60008060008060008060808789031215612f7857612f77612e8e565b5b6000612f8689828a01612ee1565b9650506020612f9789828a01612ee1565b955050604087013567ffffffffffffffff811115612fb857612fb7612e93565b5b612fc489828a01612f05565b9450945050606087013567ffffffffffffffff811115612fe757612fe6612e93565b5b612ff389828a01612f05565b92509250509295509295509295565b6000819050919050565b61301581613002565b811461302057600080fd5b50565b6000813590506130328161300c565b92915050565b60008060008060008060008060a0898b03121561305857613057612e8e565b5b60006130668b828c01612ee1565b985050602089013567ffffffffffffffff81111561308757613086612e93565b5b6130938b828c01612f05565b9750975050604089013567ffffffffffffffff8111156130b6576130b5612e93565b5b6130c28b828c01612f05565b9550955050606089013567ffffffffffffffff8111156130e5576130e4612e93565b5b6130f18b828c01612f05565b935093505060806131048b828c01613023565b9150509295985092959890939650565b60006020828403121561312a57613129612e8e565b5b600061313884828501612ee1565b91505092915050565b600081519050919050565b600082825260208201905092915050565b6000819050602082019050919050565b600081519050919050565b600082825260208201905092915050565b60005b838110156131a757808201518184015260208101905061318c565b60008484015250505050565b6000601f19601f8301169050919050565b60006131cf8261316d565b6131d98185613178565b93506131e9818560208601613189565b6131f2816131b3565b840191505092915050565b61320681613002565b82525050565b6000608083016000830151848203600086015261322982826131c4565b9150506020830151848203602086015261324382826131c4565b9150506040830151848203604086015261325d82826131c4565b915050606083015161327260608601826131fd565b508091505092915050565b6000613289838361320c565b905092915050565b6000602082019050919050565b60006132a982613141565b6132b3818561314c565b9350836020820285016132c58561315d565b8060005b8581101561330157848403895281516132e2858261327d565b94506132ed83613291565b925060208a019950506001810190506132c9565b50829750879550505050505092915050565b6000602082019050818103600083015261332d818461329e565b905092915050565b60008060008060006060868803121561335157613350612e8e565b5b600061335f88828901612ee1565b955050602086013567ffffffffffffffff8111156133805761337f612e93565b5b61338c88828901612f05565b9450945050604086013567ffffffffffffffff8111156133af576133ae612e93565b5b6133bb88828901612f05565b92509250509295509295909350565b6133d381612eb8565b82525050565b60006060830160008301516133f160008601826133ca565b506020830151848203602086015261340982826131c4565b9150506040830151848203604086015261342382826131c4565b9150508091505092915050565b6000602082019050818103600083015261344a81846133d9565b905092915050565b600060608301600083015161346a60008601826133ca565b506020830151848203602086015261348282826131c4565b9150506040830151848203604086015261349c82826131c4565b9150508091505092915050565b600060208201905081810360008301526134c38184613452565b905092915050565b600060ff82169050919050565b6134e1816134cb565b81146134ec57600080fd5b50565b6000813590506134fe816134d8565b92915050565b60008115159050919050565b61351981613504565b811461352457600080fd5b50565b60008135905061353681613510565b92915050565b60008060008060008060008060e0898b03121561355c5761355b612e8e565b5b600061356a8b828c01612ee1565b985050602061357b8b828c01612ee1565b975050604089013567ffffffffffffffff81111561359c5761359b612e93565b5b6135a88b828c01612f05565b965096505060606135bb8b828c016134ef565b94505060806135cc8b828c016134ef565b93505060a06135dd8b828c016134ef565b92505060c06135ee8b828c01613527565b9150509295985092959890939650565b600080600080600080600080600080600060e08c8e03121561362357613622612e8e565b5b60006136318e828f01612ee1565b9b505060208c013567ffffffffffffffff81111561365257613651612e93565b5b61365e8e828f01612f05565b9a509a505060408c013567ffffffffffffffff81111561368157613680612e93565b5b61368d8e828f01612f05565b985098505060608c013567ffffffffffffffff8111156136b0576136af612e93565b5b6136bc8e828f01612f05565b965096505060808c013567ffffffffffffffff8111156136df576136de612e93565b5b6136eb8e828f01612f05565b945094505060a06136fe8e828f01613023565b92505060c061370f8e828f01613023565b9150509295989b509295989b9093969950565b600081519050919050565b600082825260208201905092915050565b6000819050602082019050919050565b613757816134cb565b82525050565b61376681613504565b82525050565b600060a083016000830151848203600086015261378982826131c4565b915050602083015161379e602086018261374e565b5060408301516137b1604086018261374e565b5060608301516137c4606086018261374e565b5060808301516137d7608086018261375d565b508091505092915050565b60006137ee838361376c565b905092915050565b6000602082019050919050565b600061380e82613722565b613818818561372d565b93508360208202850161382a8561373e565b8060005b85811015613866578484038952815161384785826137e2565b9450613852836137f6565b925060208a0199505060018101905061382e565b50829750879550505050505092915050565b600060208201905081810360008301526138928184613803565b905092915050565b600080602083850312156138b1576138b0612e8e565b5b600083013567ffffffffffffffff8111156138cf576138ce612e93565b5b6138db85828601612f05565b92509250509250929050565b600081519050919050565b600082825260208201905092915050565b6000819050602082019050919050565b600060a083016000830151848203600086015261393082826131c4565b9150506020830151848203602086015261394a82826131c4565b9150506040830151848203604086015261396482826131c4565b915050606083015161397960608601826131fd565b50608083015161398c60808601826131fd565b508091505092915050565b60006139a38383613913565b905092915050565b6000602082019050919050565b60006139c3826138e7565b6139cd81856138f2565b9350836020820285016139df85613903565b8060005b85811015613a1b57848403895281516139fc8582613997565b9450613a07836139ab565b925060208a019950506001810190506139e3565b50829750879550505050505092915050565b60006020820190508181036000830152613a4781846139b8565b905092915050565b600081519050919050565b600082825260208201905092915050565b6000819050602082019050919050565b6000606083016000830151613a9360008601826133ca565b5060208301518482036020860152613aab82826131c4565b91505060408301518482036040860152613ac582826131c4565b9150508091505092915050565b6000613ade8383613a7b565b905092915050565b6000602082019050919050565b6000613afe82613a4f565b613b088185613a5a565b935083602082028501613b1a85613a6b565b8060005b85811015613b565784840389528151613b378582613ad2565b9450613b4283613ae6565b925060208a01995050600181019050613b1e565b50829750879550505050505092915050565b60006020820190508181036000830152613b828184613af3565b905092915050565b600081519050919050565b600082825260208201905092915050565b6000819050602082019050919050565b6000613bc283836133ca565b60208301905092915050565b6000602082019050919050565b6000613be682613b8a565b613bf08185613b95565b9350613bfb83613ba6565b8060005b83811015613c2c578151613c138882613bb6565b9750613c1e83613bce565b925050600181019050613bff565b5085935050505092915050565b60006020820190508181036000830152613c538184613bdb565b905092915050565b600082825260208201905092915050565b7f496e737469747574696f6e206973206e6f742072656769737465726564210000600082015250565b6000613ca2601e83613c5b565b9150613cad82613c6c565b602082019050919050565b60006020820190508181036000830152613cd181613c95565b9050919050565b7f4f6e6c792074686520696e737469747574696f6e2063616e20706572666f726d60008201527f207468697320616374696f6e2100000000000000000000000000000000000000602082015250565b6000613d34602d83613c5b565b9150613d3f82613cd8565b604082019050919050565b60006020820190508181036000830152613d6381613d27565b9050919050565b7f53747564656e7420616c72656164792072656769737465726564210000000000600082015250565b6000613da0601b83613c5b565b9150613dab82613d6a565b602082019050919050565b60006020820190508181036000830152613dcf81613d93565b9050919050565b7f4e487b7100000000000000000000000000000000000000000000000000000000600052604160045260246000fd5b7f4e487b7100000000000000000000000000000000000000000000000000000000600052602260045260246000fd5b60006002820490506001821680613e4c57607f821691505b602082108103613e5f57613e5e613e05565b5b50919050565b60008190508160005260206000209050919050565b60006020601f8301049050919050565b600082821b905092915050565b600060088302613ec77fffffffffffffffffffffffffffffffffffffffffffffffffffffffffffffffff82613e8a565b613ed18683613e8a565b95508019841693508086168417925050509392505050565b6000819050919050565b6000819050919050565b6000613f18613f13613f0e84613ee9565b613ef3565b613ee9565b9050919050565b6000819050919050565b613f3283613efd565b613f46613f3e82613f1f565b848454613e97565b825550505050565b600090565b613f5b613f4e565b613f66818484613f29565b505050565b5b81811015613f8a57613f7f600082613f53565b600181019050613f6c565b5050565b601f821115613fcf57613fa081613e65565b613fa984613e7a565b81016020851015613fb8578190505b613fcc613fc485613e7a565b830182613f6b565b50505b505050565b600082821c905092915050565b6000613ff260001984600802613fd4565b1980831691505092915050565b600061400b8383613fe1565b9150826002028217905092915050565b6140248261316d565b67ffffffffffffffff81111561403d5761403c613dd6565b5b6140478254613e34565b614052828285613f8e565b600060209050601f8311600181146140855760008415614073578287015190505b61407d8582613fff565b8655506140e5565b601f19841661409386613e65565b60005b828110156140bb57848901518255600182019150602085019450602081019050614096565b868310156140d857848901516140d4601f891682613fe1565b8355505b6001600288020188555050505b505050505050565b82818337600083830152505050565b60006141088385613c5b565b93506141158385846140ed565b61411e836131b3565b840190509392505050565b600060208201905081810360008301526141448184866140fc565b90509392505050565b600081905092915050565b6000614164838561414d565b93506141718385846140ed565b82840190509392505050565b600061418a828486614158565b91508190509392505050565b7f4e487b7100000000000000000000000000000000000000000000000000000000600052603260045260246000fd5b600081546141d281613e34565b6141dc818661414d565b945060018216600081146141f7576001811461420c5761423f565b60ff198316865281151582028601935061423f565b61421585613e65565b60005b8381101561423757815481890152600182019150602081019050614218565b838801955050505b50505092915050565b600061425482846141c5565b915081905092915050565b7f436f7572736520616c7265616479207265676973746572656421000000000000600082015250565b6000614295601a83613c5b565b91506142a08261425f565b602082019050919050565b600060208201905081810360008301526142c481614288565b9050919050565b7f50726f666573736f7220616c7265616479207265676973746572656420696e2060008201527f7468697320696e737469747574696f6e21000000000000000000000000000000602082015250565b6000614327603183613c5b565b9150614332826142cb565b604082019050919050565b600060208201905081810360008301526143568161431a565b9050919050565b61436681612eb8565b82525050565b6000604082019050614381600083018661435d565b81810360208301526143948184866140fc565b9050949350505050565b7f4f6e6c792074686520636f6e7472616374206f776e65722063616e207065726660008201527f6f726d207468697320616374696f6e2100000000000000000000000000000000602082015250565b60006143fa603083613c5b565b91506144058261439e565b604082019050919050565b60006020820190508181036000830152614429816143ed565b9050919050565b7f496e737469747574696f6e20616c726561647920726567697374657265642100600082015250565b6000614466601f83613c5b565b915061447182614430565b602082019050919050565b6000602082019050818103600083015261449581614459565b9050919050565b7f53747564656e74206e6f74207265676973746572656421000000000000000000600082015250565b60006144d2601783613c5b565b91506144dd8261449c565b602082019050919050565b60006020820190508181036000830152614501816144c5565b9050919050565b7f4469736369706c696e65206e6f7420666f756e6420696e2074686520636f757260008201527f7365210000000000000000000000000000000000000000000000000000000000602082015250565b6000614564602383613c5b565b915061456f82614508565b604082019050919050565b6000602082019050818103600083015261459381614557565b9050919050565b7f53747564656e74206e6f7420656e726f6c6c656420696e20746865206469736360008201527f69706c696e652100000000000000000000000000000000000000000000000000602082015250565b60006145f6602783613c5b565b91506146018261459a565b604082019050919050565b60006020820190508181036000830152614625816145e9565b9050919050565b7f477261646520616c7265616479207265636f7264656420666f7220746869732060008201527f6469736369706c696e6520616e6420706572696f642100000000000000000000602082015250565b6000614688603683613c5b565b91506146938261462c565b604082019050919050565b600060208201905081810360008301526146b78161467b565b9050919050565b6146c7816134cb565b82525050565b600060408201905081810360008301526146e88185876140fc565b90506146f760208301846146be565b949350505050565b600061470a8261316d565b614714818561414d565b9350614724818560208601613189565b80840191505092915050565b600061473c82846146ff565b915081905092915050565b7f436f75727365206e6f7420666f756e6421000000000000000000000000000000600082015250565b600061477d601183613c5b565b915061478882614747565b602082019050919050565b600060208201905081810360008301526147ac81614770565b9050919050565b7f4469736369706c696e6520616c7265616479207265676973746572656420696e60008201527f207468697320636f757273652100000000000000000000000000000000000000602082015250565b600061480f602d83613c5b565b915061481a826147b3565b604082019050919050565b6000602082019050818103600083015261483e81614802565b9050919050565b600060408201905081810360008301526148608186886140fc565b905081810360208301526148758184866140fc565b90509594505050505056fea2646970667358221220135f5eecc03caefda0aafb69aad659a83f3d3626fdb46645bf5576bab881c78464736f6c634300081b0033",
    "linkReferences": {},
    "deployedLinkReferences": {}
}